S012000070696E67697370726F6A2E73726563CD
S214080000A0CE0720552308005123080051230800D6
S214080010512308005123080051230800000000005F
S214080020000000000000000000000000F5070800BF
S214080030512308000000000071080800AD080800F9
S21408004051230800512308005123080051230800B3
S21408005051230800512308005123080051230800A3
S214080060512308005123080000000000052208005C
S214080070192208002D22080041220800000000006E
S21408008000000000E9010800512308005123080079
S2140800905123080051230800512308005123080063
S2140800A051230800000000005123080051230800CF
S2140800B05123080051230800512308005123080043
S2140800C05123080051230800512308005123080033
S2140800D05123080051230800512308005123080023
S2140800E05123080051230800512308005123080013
S2140800F05123080010B5054C237833B9044B13B1C7
S2140801000448AFF300800123237010BDA809072018
S214080110000000002C8E0800084B10B51BB10848DC
S2140801200849AFF300800848036803B910BD074BB9
S214080130002BFBD0BDE81040184700BF00000000A9
S2140801402C8E0800AC0907202C8E08000000000042
S21408015038B50F4C0F4B252098470F4D20460F49B2
S2140801600F4A0023A84700210A4620460B460D4D95
S214080170A847204610210C4B984720460A210B4BCF
S2140801809847002120460A46094B984738BD00BFC5
S21408019000000C4015230800991B0800007A030A83
S2140801A0002D3101E91B0800CB1B0800091C0800BC
S2140801B0DB1B080070B50E46144670B91546611B61
S2140801C0002D314406DD064B013D1868054B1B68BB
S2140801D09847F4E724EAE47070BD4FF0FF3070BD2E
S2140801E0B8AD0720B0AD072037B5114B0DF10701A4
S2140801F001221048984772B6BFF35F8F0E499DF8E4
S21408020007500B780D4C9B2B0D4AE55418BF01334D
S2140802104FF0000018BF0B704FF00103107008BFB6
S21408022008701370BFF35F8F62B603B030BD00BFAF
S214080230411C080000800940600A0720C4090720FE
S214080240F8000720094B4FF080625A61C3F8A020D7
S214080250074A4FF480011161C2F8A01051634FF0AD
S21408026000621A61C3F8A0201A63704700100E4097
S21408027000120E401FB52420174B98470446002846
S21408028026D116482146164B9847164B01A90193C6
S214080290154B12480393154B0294984714490B23A1
S2140802A04B6040F2E7330D480B61124B0C818C72A1
S2140802B0CC600C60984710484FF080514FF480325D
S2140802C00E4B9847054821460D4B9847204600E0B8
S2140802D0012004B010BD00BF1523080000400940E7
S2140802E0871E0800583E0F0000BD0105291D08009E
S2140802F0640A0720691D080000100E40C91F080080
S2140803007F1E080040F2E73208B5824228BF024640
S2140803100249034B0348984708BD00BF640A0720F4
S214080320611E08000040094070B59AB0002164229A
S2140803301B4B01A898471B4B984700901A4E002164
S21408034030684FF0FF320B46184CA04718B3184BCE
S21408035001A9B3F900000A22164D174CA84701A8B0
S214080360A0471648A047164B01A918880A22A8478E
S21408037001A8A0471148A047124B01A918880A22CD
S214080380A84701A8A0470D48A047002130680A469C
S2140803900B460D4CA047684632210C4B9847CDE7D4
S2140803A0492E08000112080000010720C50D0800A4
S2140803B04CAC0720592D0800012D0800C8890800F4
S2140803C048AC07204AAC07202D0C0800F513080097
S2140803D0F8B50D4C0E4600210546174620684FF026
S2140803E0FF320B46DFF834C0E04758B1074B002110
S2140803F01F80074B20681E80064B0A461D80064C49
S2140804000B46A047F8BD00BF000107204AAC0720EE
S21408041048AC07204CAC07202D0C0800C50D08007A
S2140804200A23B0FBF3F070B50E4B33F810500E4BA2
S2140804301C880E4B641B204698470D4B19680D4BBD
S21408044098470D4B01460D4898470D4B984786B27E
S21408045030460C4B984720B231462A460A4B9847F6
S21408046070BD00BFB2AC072084AE07207128080014
S21408047094AE072019290800052708000000FA434B
S214080480052C080005030800D103080013B50C4B1B
S2140804901C880C4B984701900B480C4B98470C4B04
S2140804A009489847C301FAD50A4B074898470A4BA4
S2140804B080B2984701A82146084B9847ECE700BF4A
S2140804C090AE07200112080000000C40031C08002C
S2140804D0151C0800111C080021040800F513080064
S2140804E013B5002301931B4B0C46984206D11948B6
S2140804F02146194B98470028F9D128E0174B98420F
S21408050006D1164801A9164B98470028F9D11CE0D1
S214080510144B984206D1134801A9114B9847002856
S214080520F9D112E0104B984206D10F4801A90C4B9E
S21408053098470028F9D108E00C4B984207D10B4899
S21408054001A9074B98470028F9D1019B237002B0F0
S21408055010BD00BF00080E40D31E080000800940EA
S2140805602B1C080000C0094000000A4000400A4052
S2140805701B4B10B598420C4607D119482146194B13
S21408058098470028F9D1012010BD174B984206D18C
S21408059015482146154B98470028F9D1F3E7144B20
S2140805A0984206D112482146104B98470028F9D1A0
S2140805B0E9E7104B984206D10E4821460B4B984760
S2140805C00028F9D1DFE70C4B984206D10A482146A5
S2140805D0064B98470028F9D1D5E7002010BD00BF84
S2140805E000080E40C51E080000800940191C0800B7
S2140805F000C0094000000A4000400A40F0B58FB02D
S21408060000213222204B01A89847204C01A8204DF3
S214080610A04701A8A8474FF47A771E4E90FBF7F03C
S214080620B0471D4B186001A8A04701A8A84790FB33
S214080630F7F0B047194B186001A8A04701A8A847CB
S21408064090FBF7F0B047164B186001A8A04701A822
S214080650A847144B188001A8A04701A8A847124B22
S2140806600025188001A8A047104B01A89847104BF2
S2140806709847104B9847104B23F815000135642D02
S214080680F0D10FB0F0BD00BF492E0800A12C08001D
S2140806904D2C08007128080094AE07208CAE072061
S2140806A088AE072084AE072090AE0720452C0800A9
S2140806B05D260800052C0800B2AC072030B50820D7
S2140806C085B0124DA847124C124B134A1C60134BA8
S2140806D008201A60124A134B1A60134B01934FF402
S2140806E0E13302934FF400630393A8470F4D01A923
S2140806F020460F4B98472B680E4C98680021A04759
S2140807002B6800215868A04705B030BD152308009F
S21408071000080E40B8AD072071050800B4AD0720E4
S214080720E1040800B0AD072000BD0105300507202C
S2140807308F1E0800192F080000F108034FF0FF323B
S21408074082604360C3600361002303607047002330
S2140807500361704743685A684A6042688A605A6804
S214080760916059604160086103680133036070470F
S2140807700A6810B5531C01D1036907E000F10803A5
S2140807805C682468944201D85B68F9E75A684A604E
S21408079091608B605960086103680133036010BD7F
S2140807A0436882689A60836842685A6003695A6830
S2140807B0824204BF82685A60002202611A68013ABF
S2140807C01A6018687047000003480068006880F3DD
S2140807D0088862B600DF00BF08ED00E04FF08073BF
S2140807E000E90A00002340F80C3C40F8202C40386A
S2140807F070470000064B19680868B0E8F00F80F3E9
S21408080009884FF0000080F311884EF00D0E7047EF
S21408081064AB0720024B4FF080521A60704700BF47
S21408082004ED00E0EFF311804FF0A00181F311888A
S2140808307047002008B5034B9847034A13680133EE
S214080840136008BD25080800EC00072080F311880F
S2140808507047000008B5044B18680138186008B9D6
S214080860024B984708BD00BFEC0007204D0808005B
S214080870EFF309800C4B1A6820E9F00F10602DE999
S21408088008404FF0A00080F3118800F037FE4FF0C4
S214080890000080F31188BDE8084019680868B0E8C9
S2140808A0F00F80F30988704764AB072008B5064B3D
S2140808B04FF080521A60054B9847054B9847002022
S2140808C0044B984708BD00BF04ED00E02508080063
S2140808D0211208004D080800034A044B1A60072234
S2140808E043F8042C704700BF1F48010014E000E0DE
S2140808F010B5094B00241A6842F470021A601A6888
S21408090042F070421A60054B9847054B1C60054B31
S2140809109847204610BD00BF20ED00E0D908080023
S214080920EC000720C907080010B5104B1A68824269
S21408093001D21346FAE759685C18844201BF40683A
S21408094009181846596041684418944209D1084C59
S2140809502468A2421FBF5268891841601A6818BFE7
S21408096012688342026018BF186010BD94AA072058
S21408097090AA072070B5254B04469847244A116864
S21408098089B949F6F07549F6F476224B224899510A
S2140809900360416059512148214983E821000B68CA
S2140809A01060103B0B602CB1103463071CBF24F09A
S2140809B00704083449F6FE73611E994221D8164B7F
S2140809C01D686968A14203D31268954206D118E0EB
S2140809D029680029F8D02B460D46F2E72A681E68D3
S2140809E01A606B6810361B1B202B04D92819436025
S2140809F06C600C4B98470A4A696813685B1A136060
S214080A0000E00026084B9847304670BDF1110800F4
S214080A1090AA0720900A072094AA072080AA0720F1
S214080A20F0000720290908000D13080010B5044631
S214080A3068B1074B9847074A54F80C1C1368A4F18A
S214080A4010000B441360044B9847044B984710BD9E
S214080A50F1110800F0000720290908000D13080006
S214080A6038B504461046226C32B92568FDB9606868
S214080A70114B984765601AE0104B58B9A06898471C
S214080A80A268236C13446268A36093420FD323685A
S214080A90A3600CE0E0689847236CE2685B42216834
S214080AA01A448A42E2603EBF62689B18E360A36B02
S214080AB00133A36338BD00BFC91708005D2D0800C1
S214080AC038B5056803465DB1C468026C1444C46052
S214080AD04068844228BFDD600846D968014B9847BD
S214080AE038BD00BF5D2D080070B5174D04462E466C
S214080AF0A847A36C002B0CDD636A53B104F12400ED
S214080B00124B984708B1124B9847A36C013BA36455
S214080B10EFE74FF0FF33A3640E4DA847B047636C6A
S214080B20002B0CDD236953B104F11000074B9847DE
S214080B3008B1074B9847636C013B6364EFE74FF0D7
S214080B40FF336364A84770BD350808000D16080013
S214080B50251708005508080038B50D46044618B984
S214080B60164B984700BFFDE7154B9847206CE36B7C
S214080B7022684343D1181B1A13446160E3600021BE
S214080B804FF0FF33A163A2606364A36455B9236979
S214080B907BB104F110000B4B9847012809D10A4B8A
S214080BA0984706E004F11000084DA84704F1240011
S214080BB0A847074B9847012038BD00BF25080800FE
S214080BC0350808000D16080015080800390708003B
S214080BD0550808002DE9F0410E469046054668B1CE
S214080BE050200E4FB847044640B106FB05F00130CA
S214080BF0B847206030B92046094B9847094B9847B4
S214080C0000BFFDE7E563266420460121064B9847AA
S214080C1084F84D802046BDE8F08100BF75090800BD
S214080C202D0A080025080800590B08002DE9FF477B
S214080C30884601929946044618B9374B984700BF2C
S214080C40FDE721B9036C002B5ED18A4632E04FF0EF
S214080C50000A2FE0BAF1000F02D102A82F4B9847DE
S214080C60B8472F4B9847B047636C2E4D013304BFE7
S214080C7000236364A36C013304BF0023A364B8474E
S214080C8002A801A9284B9847284F002837D1B04713
S214080C90D4F838A0E66B264B9847B2452BD104F11A
S214080CA010000199234B98472046B847A847F8B143
S214080CB04FF0010A204EB047A26BE36B1C4F9A42D6
S214080CC011D21E4B204641464A469847636A3BB1B6
S214080CD004F124001A4B9847012801D1194B98476C
S214080CE0B847012014E0019D002DB3D1B84709E0AC
S214080CF0144B9847DCE72046B847A847D8E720466D
S214080D00B847A847002003E0034B984700BFFDE715
S214080D1004B0BDE8F08700BF25080800851608005F
S214080D20F11108000D130800AD160800E90A0800BE
S214080D30550808006D15080035080800610A0800FF
S214080D400D160800150808002DE9F04104460D4662
S214080D5016469846174814B9804700BFFDE721B9DC
S214080D60236C13B1804700BFFDE78047E16B074659
S214080D70A06B884217D2104B204629464246984711
S214080D80A36C01330AD1636A5BB104F124000B4BF0
S214080D90984730B12EB10124346005E0A36C0133C6
S214080DA0A364012400E000243846054B98472046F3
S214080DB0BDE8F08125080800610A08000D1608003D
S214080DC04D0808002DE9FF478846019299460446D3
S214080DD018B9444B984700BFFDE721B9036C002BB0
S214080DE079D18A463AE04FF0000A37E0BAF1000FA8
S214080DF002D102A83C4B9847B8473C4B9847B047A7
S214080E00636CDFF804A1013304BF00236364A36C9A
S214080E10374D013304BF0023A364B84702A801A9CD
S214080E20344B9847344F002850D1B047A66BD0476C
S214080E30002E47D123682BB9304B98476068304B53
S214080E409847D04704F1240001992E4B984720462E
S214080E50B847A847002832D04FF0010A274EB047B7
S214080E60A36B294F33B320464146284BE56898477D
S214080E70B9F1000F12D1A36B013BA363236813B922
S214080E80234B9847606023698BB104F11000214B0F
S214080E90984701280BD1204B984708E0636AE5601D
S214080EA02BB104F124001B4B98470028F3D1B84710
S214080EB0012014E0019D002D98D1B84709E0164B93
S214080EC09847C9E72046B847A847C5E72046B84721
S214080ED0A847002003E0034B984700BFFDE704B08F
S214080EE0BDE8F0872508080085160800F1110800F7
S214080EF00D130800AD160800E90A080035080800B2
S214080F00591708006D15080055080800C10A08009A
S214080F10311708000D1608001508080038B50446ED
S214080F200C4B0D469847636C013304BF002363647B
S214080F30A36C013304BF0023A364074B9847A36B35
S214080F4023B904F124002946044B98472046044B4D
S214080F50984738BD3508080055080800C915080020
S214080F60E90A080010B50D4B04461A6850600C4A8A
S214080F70126890420B4A05D20B4908681968043172
S214080F80904710BD09490868196804319047084B0E
S214080F901A68944238BF1C6010BD00BF64AB0720B7
S214080FA080AB07207107080084AB0720C4AA072077
S214080FB0F40007202DE9F84F0A9E8A4615469946FA
S214080FC0DDF830B0804618B9544B984700BFFDE7A7
S214080FD0042E03D9514B984700BFFDE74C20504FCD
S214080FE0B8470446002800F09580BBF1000F02D1F0
S214080FF0A800B84700E05846206318B92046494B71
S214081000984787E0AD002A46A521474B9847236BAB
S214081010043D51460A221D4404F13400434B9847C8
S21408102004F1040A002384F83D305046DFF844B142
S214081030E662A664D84704F11800D84725F00705E5
S214081040C6F10503A3612461394B6462284641460C
S2140810504A4698474307206003D0304B984700BF5E
S214081060FDE70B9B03B11C60324B9847324B334D60
S2140810701A68DFF8049101321A602F68F7B92C60F5
S2140810801B68012B22D109EB0700DFF8F080143724
S214081090C047642FF7D1DFF8E8B0294F5846C04755
S2140810A03846C0472748C0472748C0472748C0474C
S2140810B0274BC3F800B0274B1F6007E0264B1B687A
S2140810C023B92B68DB6AB34298BF2C60234AE36ACD
S2140810D0116814208B42224988BF13600A6800FBF7
S2140810E00390226401320A601E4A11688B4288BF48
S2140810F0136051461C4B98471C4B9847164B1B6869
S2140811002BB12B68DB6AB34201D2194B98470120F2
S214081110BDE8F88F4FF0FF30BDE8F88F25080800C7
S214081120750908002D0A0800492E08001131080024
S214081130DD0708003508080090AB072064AB0720D9
S214081140E8AA072068AB0720B0AA07209CAA0720B1
S214081150C4AA072084AB0720CCAA072098AB072090
S2140811608CAB072088AB07205507080055080800F1
S214081170150808004F070800FCAA072039070800CA
S214081180D4AA072030B5002485B0114D00940194E8
S214081190029403940F48104982222346A847012840
S2140811A005460DD10D4B98470128054608D10C4B2E
S2140811B098470C4B1D600C4B1C600C4B984704E082
S2140811C01DB9074B984700BFFDE705B030BD00BF07
S2140811D0B50F08007D140800CA890800B51808006D
S2140811E025080800CCAA072080AB0720F1080800CD
S2140811F0024A136801331360704700BF7CAB0720B0
S21408120010B5044B9847044B1C68044B9847204677
S21408121010BD00BF3508080080AB07205508080039
S2140812202DE9F0412D4B1B68002B51D12C4B1A6829
S2140812301E4601321A601A68E2B92A4B1A68126802
S2140812401AB1294B984700BFFDE7284A1968106865
S2140812501860116026490A6801320A601A6811681F
S214081260244A11B94FF0FF3303E01B68DB68DB68DC
S2140812705B6813601F4C326823689A422CD3194B5C
S2140812801A68126812B94FF0FF3306E01B68DB686D
S214081290DD6832686B689A4202D22360BDE8F08146
S2140812A02F1D3846DFF86080C047AB6A13B105F1DA
S2140812B01800C047104AEB6A116814208B4288BF92
S2140812C013600E4A394600FB03200D4B9847D6E7B5
S2140812D00C4A136801331360BDE8F0817CAB072025
S2140812E080AB0720C4AA07202508080084AB07207F
S2140812F060AB0720F400072088AB0720FCAA07206D
S21408130055070800C8AA0720A1070800F8B52A4C00
S21408131023681BB9294B984700BFFDE7284B984719
S2140813202368013B236024680CB100243FE0254B6A
S2140813301B68002BF9D0244B1A68EAB1DB68234FE8
S214081340DD682E1D05F11800B8473046B847204A14
S214081350EB6A116814208B4288BF13601D4A314619
S21408136000FB03201C4B98471C4BEA6A1B68DB6A89
S2140813709A4228BF0124DEE7194B1A681D4642B177
S2140813802B68174C3BB1174B98472368013B2360E3
S214081390F6E7012C06D1144B00221A60134B984727
S2140813A0012404E0104B1B68012BBED1F3E7104B59
S2140813B098472046F8BD00BF7CAB072025080800E4
S2140813C03508080090AB072068AB0720A10708007F
S2140813D088AB0720FCAA07205507080064AB07203F
S2140813E0C8AA07202112080094AB07201508080091
S2140813F05508080038B50C46054618B9174B9847DF
S21408140000BFFDE719B9154B984700BFFDE7144B19
S2140814109847144A2B6811681C44994202D29C4289
S21408142008D201E09C4207D313689C4294BF00236D
S214081430012302E0002300E001232C603BB10A4BA5
S21408144018680A4B043098472046094B9847094BBA
S214081450984708B9084B984738BD00BF25080800C4
S214081460F111080080AB072064AB0720A10708002D
S214081470650F08000D1308001508080008B5144C79
S2140814802368EBB1134D144B98472E68134B9847B7
S214081490002EF4D0124B9847EB68DD68114B281DD8
S2140814A09847114A1368013B13602368013B236081
S2140814B00E4B98470E4C286BA0472846A047DEE7F9
S2140814C00C4B1B68012BDAD90B4B9847D7E700BFA4
S2140814D0D0AA0720B0AA0720F11108000D130800AB
S2140814E035080800A107080090AB07205508080033
S2140814F02D0A0800FCAA07201508080010B5154B89
S2140815001B682BB10122144B22E00B68013B0B60D1
S214081510124914230868124A5843105830B90B6801
S214081520002BF2D10F4B984700BFFDE709684B43E5
S214081530D018446808336468134444609C4204BF67
S21408154063684360142303FB01225368DA68064B7A
S2140815501A6010BD7CAB072094AB072088AB072029
S214081560FCAA07202508080064AB072038B50D46F6
S21408157018B90D4B984700BFFDE70C4C0C4B21687B
S2140815801831984720680B4B043098476B1C05D1D8
S214081590216809480431094B984738BD084B186834
S2140815A0084B2844984738BD2508080064AB072030
S2140815B071070800A10708009CAA0720550708001D
S2140815C080AB0720650F080038B50D4618B9094BDB
S2140815D0984700BFFDE7084C084B21681831984724
S2140815E02068074B04309847064B1868064B284473
S2140815F0984738BD2508080064AB0720550708003B
S214081600A107080080AB0720650F0800F8B5C36877
S214081610DC681CB9134B984700BFFDE704F11806B1
S2140816203046114FB847114B114D1B686BB9261D34
S2140816303046B8470F4AE36A116814208B4288BFC1
S21408164013600D4A00FB032000E00C483146A8470B
S2140816500B4BE06A1B68DB6A984234BF0020012007
S214081660F8BD00BF25080800A10708007CAB0720C6
S2140816705507080088AB0720FCAA072068AB072098
S21408168064AB072008B518B9054B984700BFFDE7B7
S214081690044B1B680360044B1B68436008BD00BF0F
S2140816A02508080060AB072080AB072038B50D4634
S2140816B0044618B9154B984700BFFDE719B9134BF0
S2140816C0984700BFFDE7124B98472B685A1C15D061
S2140816D0104A1168226891420F4A616802D0106861
S2140816E088420DD21268521A9A4209D20A4A2046ED
S2140816F01268521A9B1A2B60084B9847002400E081
S2140817000124074B9847204638BD00BF2508080027
S2140817103508080060AB072080AB07208516080050
S21408172055080800014B01221A60704794AB072041
S214081730014B1868704700BF64AB0720044B186855
S21408174028B1044B1B68002B0CBF012002207047F1
S214081750CCAA07207CAB0720F8B5044640B3154D45
S214081760C36A2A68D26A934222D22A68D26AC2F127
S214081770050282611048142202FB030362690646CA
S2140817809A4212D1271D38460C4B98472B680C4AAC
S214081790DB6A116814208B42E36288BF136000FB83
S2140817A003603946074B9847F8BD2B68DB6AE36247
S2140817B0F8BD00BF64AB0720FCAA0720A1070800F5
S2140817C088AB07205507080038B50446C0B1C26A7A
S2140817D0836C9A4214D0051D0A4B28469847A36C7A
S2140817E01420C3F10502A261074AE36211688B421E
S2140817F088BF1360054A294600FB0320044B984718
S21408180038BD00BFA107080088AB0720FCAA072040
S214081810550708002DE9F0410D4C0E4B98472568F2
S2140818208DB90D4F0D4E3846DFF84480C047304618
S214081830C0470B4B05201F600A4B0C211E602A462A
S214081840094B98472060094B9847BDE8F08100BFD0
S214081850CCAB072035080800A0AB0720B4AB0720A0
S2140818609CAB0720D0AB0720D50B0800550808000E
S2140818703907080010B5044691424160206105D832
S214081880D21A83699A420CD2074B04E09A4201D2D4
S214081890994206D2054B1868211D054B984700202B
S2140818A010BD012010BD00BFD0AB07209CAB0720A1
S2140818B0710708001FB50D4B98470D4B1B6813B9E9
S2140818C00C4B98470FE004230093002301930293E0
S2140818D00393094809494FF48272094CA047002827
S2140818E0EED004B010BD00BFFDE700BF1518080015
S2140818F0CCAB072025080800D1190800CF890800B6
S214081900B50F08007FB50F4D064628681C46B0B1CF
S2140819100191029203966BB90B4B9847012818BFA2
S21408192022460A4E286801A906BF089A2346134687
S214081930B04704E01A4601A90023054CA04704B0A6
S21408194070BD00BFCCAB07203D1708002D0C080063
S214081950490D0800F7B5184D2B681A682AB3DA68D7
S2140819601668DB68DC68154B271D38469847636A97
S21408197020469847E369012BEDD1A3693344B34267
S21408198006D963602461286839460D4B9847E2E714
S21408199000212046009132460B460A4CA0470028F4
S2140819A0D9D1094B984700BFFDE7084A116813606C
S2140819B0296003B0F0BD00BF9CAB0720A107080054
S2140819C0710708000519080025080800D0AB07208D
S2140819D02DE9F04786B0DFF880A1DAF800301C68F9
S2140819E0B4FA84F4640914B9DB681E6800E00026BB
S2140819F04C4B4D4D9847A847DFF860810746D8F806
S214081A000030A946984203D2484B9847012300E085
S214081A100023C8F80070464D002B30D12CBBBE42C0
S214081A2023D8A847DAF80030DB68DD68414B281D64
S214081A309847EB69012B14D1A9693A4628463144E0
S214081A4033463D4FB84701280BD10094214623461C
S214081A5028463246394CA04718B9394B984700BF34
S214081A60FDE76B6A284698470AE0364BF11B18686C
S214081A70354B9847A84718B9344B984700E0A8470D
S214081A80C847D8F800300546984201D2274B9847F1
S214081A90C8F800502B4B0022186803A913462C4C94
S214081AA0A047002897D0059C24B1636913B1201D70
S214081AB0204B9847039E022E21D0032E2DD0002EB1
S214081AC0E8D1049BA169204619442A461A4FB8470C
S214081AD00128DFD1636A20469847E369012BD9D1EC
S214081AE0A269049B20461A44009631463346134C96
S214081AF0A0470028CED1124B984700BFFDE70499AF
S214081B00A16119B90E4B984700BFFDE72046294446
S214081B102A462B46084CA047BCE720460D4B98475C
S214081B20B8E700BFF11108000112080055190800AF
S214081B300D130800A1070800751808000519080005
S214081B4025080800CCAB07201D0F0800150808005C
S214081B50C50D08002D0A08009CAB0720C8AB072057
S214081B600138022870B50E460ED80C468D18AC42C1
S214081B70A4EB06000BD0064B14F8011B1868054B9F
S214081B801B6898470028F2DA4FF0FF3070BD70BD2A
S214081B90B8AD0720B4AD072030B5520040F2022594
S214081BA0B1FBF2F10124046000244460C0F820511F
S214081BB0C0F80441C0F8144145684A1E12022B4377
S214081BC092B213434360204630BD436823F01003A7
S214081BD0436043681943416070474368D20119431C
S214081BE0D2B211434160704710B5446809062243D3
S214081BF001F070611B070A4303F040531343436028
S214081C0010BD02230360704701238B4003617047B1
S214081C10006A7047006B704743699B0743BFC1F370
S214081C200801C1610020012070474369DB0741BFF6
S214081C3083690020C3F308030B6058BF0120704770
S214081C4073B505460C468E18B44236D00023019369
S214081C501B4B9D4206D11A4821461A4B9847002826
S214081C60F9D128E0184B9D4206D1174801A9174B11
S214081C7098470028F9D11CE0154B9D4206D1144818
S214081C8001A9124B98470028F9D112E0114B9D4242
S214081C9006D1104801A90D4B98470028F9D108E04D
S214081CA00D4B9D4207D10C4801A9084B98470028C0
S214081CB0F9D1019B23700134C6E7002002B070BD3D
S214081CC000080E40D31E0800008009402B1C0800A0
S214081CD000C0094000000A4000400A40F0B5114D17
S214081CE08DB001AC06460F460FCD0FC40FCD0FC4FE
S214081CF095E8070084E80700002201A951F8223079
S214081D00B7FBF3F0B0FBF6F0B0F5807F05D90132EB
S214081D100B2AF3D14FF6FF7001E040EA02200DB01F
S214081D20F0BD00BFD889080070B5064608680D469D
S214081D3040B10C4B896898474FF6FF7398420446A3
S214081D4001D10EE00446686840B1064BA96898477A
S214081D504FF6FF73984204D044EA004434600020EB
S214081D6070BD70BDDD1C080070B54C688A8A04F02A
S214081D700F0422430C890B6822438C7A42EA4422D9
S214081D808C7D42EA0442CC7D42EA44420C7E42EA1A
S214081D90844200EB4314C4F80022CA68C4F804223C
S214081DA00D69C4F80C528A7D2AB18D8B4A8B42EA9B
S214081DB00542C4F818224FF001129A40D243846CA8
S214081DC002EA0405CC7F04FA03F68C7F9C4044EABA
S214081DD006442C438464446C144091F8212002FA8B
S214081DE003F591F820209A4042EA054222434264CD
S214081DF091F8224001229A4014B1046A144302E082
S214081E00046A24EA0204046291F82440012C846ED1
S214081E100CBF14439443846691F825401204012CA1
S214081E20846E0CBF224324EA02028266032B4FF01C
S214081E30FF0491F8232008D8C16EDB009C4021EAF5
S214081E4004049A402243C26608E0043B016FDB00A4
S214081E509C4021EA04049A4022430267002070BD91
S214081E6010B50C690B68944221BF00EB4310CA609A
S214081E70C0F80822002038BF4FF6FF7010BD0123B7
S214081E808B404360704701238B4083607047AC23C8
S214081E9010B503604A680B68B3FBF2F34FF6FE72A0
S214081EA01B095C1E94429FBF03628B68436040F226
S214081EB002239FBFC0F8203150230360002088BF4C
S214081EC0012010BD43699B0746BFC1610020012061
S214081ED070474369DB0743BF836900200B70012006
S214081EE07047000010B50E480E4CA04700203E2153
S214081EF00D4B98470D4B98470028FBD00C4B98473E
S214081F000C4A0D4B9A620D4B98470028FBD00C4B99
S214081F10102098470B4B98470148A04710BD00BFB4
S214081F2000BD01058900072099220800E52208005F
S214081F30F5220800013F0D2000060E400523080084
S214081F4055220800D5230800174B4FF4004210B559
S214081F500B205A60154CA0470C20A0470D20A04720
S214081F600E20A047124C4FF060513B20A0474FF080
S214081F7060515520A0474FF060515620A0470D49A4
S214081F806820A0470C495C20A0470C4A0C4B4FF42D
S214081F9040710C4898474FF000612B20A0474FF03F
S214081FA000612A20A04710BD501A0E4015230800CD
S214081FB05D200800790000280100002801000008BC
S214081FC021210800000E0E40B1F1805F426414D053
S214081FD009D8B1B1B1F1006F12D1036F016F0B4090
S214081FE023EA02030BE0B1F1405F0AD0B1F1605F6B
S214081FF007D0B1F1205F03D17047036F134303671F
S21408200042607047D30741644CBF4166016612F0D0
S2140820100A0F14BF01624162930702D5C0F8801008
S21408202003E0130748BFC0F8841041610160704799
S21408203010B5029C41640CB1416600E001660BB124
S214082040016500E041650AB1016300E04163016192
S214082050016010BDC06C7047806C7047F7B54509C5
S2140820600E4605F5001501F0F04105F20775B1F1C9
S214082070205F4FEA45252BD014D8B1F1006F18D051
S214082080B1F1805F42D100F01F02012000FA02F38E
S2140820906B642A6F1A432A67F2076B604CBF6B663D
S2140820A02B6634E0B1F1405F1CD0B1F1605F19D007
S2140820B02CE000F01F00012404FA00F73A462846F0
S2140820C0144B9847F1074CBF6F662F6620461EE0F4
S2140820D000F01F02012404FA02F1284632460E4B8D
S2140820E09847F3E7012406F0605206EA04030093D3
S2140820F002F148435A4200F01F015A41284604FAA2
S21408210001F1C6F38003054DA847DFE7002003B0BA
S214082110F0BD00BFC91F08000520080031200800D0
S21408212002F0F043B3F1205F73B505460C46164639
S2140821301CD00BD8B3F1006F0FD0B3F1805F29D154
S2140821406964036F0B43036769600AE0B3F1405F95
S21408215010D0B3F1605F0DD01CE0194622460F4B35
S2140821609847F2074CBF6C662C6601E00C4B984704
S214082170012010E006F0605206F00103009302F119
S21408218048435A4221465A412846C6F38003054C1E
S214082190A047EDE7002002B070BD00BFC91F0800C9
S2140821A00520080031200800F8B5134B04460F46F2
S2140821B09847124B05462046984705401BD0104CBA
S2140821C004F1600654F80C3CBB4210D154F8081CC5
S2140821D029420CD023683846984754F8083CB4423D
S2140821E025EA030507D01034002DEBD1F8BDB4421C
S2140821F001D01034E6E7F8BD55200800592008003D
S214082200E0AB072008B502480B21024B984708BDEB
S214082210000E0E40A921080008B502480C21024B02
S214082220984708BD00100E40A921080008B50248C6
S2140822300D21024B984708BD00120E40A921080040
S21408224008B502480E21024B984708BD00140E40F8
S214082250A92108000F4B1A6B22F07002104340F6B3
S21408226001021863986E0B49000703D4013AF9D1A6
S214082270012070470A6B22F0030242F002020A634A
S21408228040F60102996E090702D4013AFAD1EFE73F
S2140822900020704700060E400F4A136A28B10F49FF
S2140822A019400F4B0B431362704723F45C1323F05B
S2140822B0030343F45C13090243F0010389B20B439A
S2140822C01362936E0449DB07FBD50B6A43F09B73D6
S2140822D043F480330B62704700060E40FCFFC8FECE
S2140822E002003701024B986E00F48030704700BF3A
S2140822F000060E40024B4FF000529A62704700BF2D
S21408230000060E40024B986E00F00200704700BFB1
S21408231000060E402C2815D81F280C4A4FF001033B
S21408232006D891698340194099420DD013610BE095
S214082330D2F80811203883401940994204D0C2F8D0
S214082340003101E0012070470020704700060E406B
S214082350FEE7000008B5164A164B9A4201D0043A22
S21408236001E0154B07E015498B42FAD252F8041FD4
S21408237043F8041BF7E7124A934203D2002243F8B5
S214082380042BF8E70F4B104A23F0604121F07F0139
S21408239003F16043B3F5801F91603EBF936843F036
S2140823A000539360094B9847094B9847FEE700BFD0
S2140823B02C8E080000000720A8090720A809072077
S2140823C09CAE07200000080000ED00E0B12C0800D5
S2140823D0E924080010B52C4A136B03F00303012BFD
S2140823E02A4B0DD003D3116ACC011AD525E028490B
S2140823F0496908064CBF4FF400414FF4FA4130E0F3
S214082400116AC9010BD423491960116A01F07001D9
S214082410102902D0202902D024E01F4921E01F49B4
S2140824201FE01C491960116A01F07001102902D0DA
S214082430202902D003E0184900E018491960116BFA
S214082440114801F00301022901BF816A806AC1F3BD
S2140824500A44196803BFC0B204FB0111B1FBF0F1CE
S2140824600F491960126B02F07002702A03BF1A68CF
S2140824700321B2FBF1F2044A1FBF116B1A68C1F3BD
S2140824800211CA401A6010BD00060E40FC00072064
S214082490101A0E4000093D0000127A00001BB70013
S2140824A0001C4E0E074B1A680AB9074A1A601B68C2
S2140824B0064A18449042DDBF024A106018464FF09C
S2140824C0FF30704744AC0720A0CE0720FC7F0820CA
S2140824D04FF0FF3070474FF400534B6000207047B2
S2140824E00120704700207047F0B53F4B85B09847ED
S2140824F03E4B98473E4C0B20A0470C20A0470D208B
S214082500A0470E20A0473B4B98473B4B98473B4B72
S21408251098473B4B98473B4B98470322012000219E
S214082520394B9847394A106020B100210A460B46B5
S214082530374CA047374B384F18683849B847384E95
S214082540B047384D0A223849384CA8473648A0477D
S2140825503748A047374B31491868B847B0470A226A
S2140825603149A8473048A0473148A047324B2B4945
S2140825701868B847B0472C490A22A8472A48A047EF
S2140825802B48A0472D4B4FF47A76188826490A22FE
S2140825907043A8472448A0472548A047284B224907
S2140825A018880A227043A8471F48A0472048A04713
S2140825B0022600242346234D009601940294039491
S2140825C021494FF400722148A84721494FF4007268
S2140825D0234600960194029403941E48A8471E4B6F
S2140825E09847204605B0F0BDE51E0800491F0800BC
S2140825F015230800BD06080045020800510108001A
S21408260075020800FD050800D50B08000001072024
S2140826102D0C080094AE07201929080000007A44FB
S214082620B92B0800592D08004EAC0720012D0800CC
S214082630C88908008CAE072088AE072084AE07201D
S21408264090AE0720B50F0800048A08002903080082
S214082650088A08008D040800851108004FEA410220
S214082660B2F1E04324BFB3F5001CDCF1FE5C0DD9E3
S21408267001F0004C4FEAC0024CEA5070B2F1004F2D
S21408268040EB830008BF20F00100704711F0804F30
S21408269021D113F13872BCBF01F00040704741F4F5
S2140826A080114FEA5252C2F11802C2F1200C10FAF9
S2140826B00CF320FA02F018BF40F001004FEAC123DD
S2140826C04FEAD32303FA0CFC40EA0C0023FA02F381
S2140826D04FEA4303CCE77FEA625307D150EA013357
S2140826E01EBF4FF0FE4040F44000704701F0004027
S2140826F040F0FE4040F40000704700BF80F0004005
S21408270002E000BF81F0004142001FBF5FEA4103BC
S21408271092EA030F7FEA226C7FEA236C6AD04FEABC
S2140827201262D2EB1363C1BFD21841404840414001
S214082730B8BF5B42192B88BF704710F0004F40F4B3
S214082740000020F07F4018BF404211F0004F41F4CF
S214082750000121F07F4118BF494292EA030F3FD09B
S214082760A2F1010241FA03FC10EB0C00C3F12003AE
S21408277001FA03F100F0004302D5494260EB40003D
S214082780B0F5000F13D3B0F1807F06D340084FEAA8
S214082790310102F10102FE2A51D2B1F1004F40EB9D
S2140827A0C25008BF20F0010040EA03007047490005
S2140827B040EB000010F4000FA2F10102EDD1B0FAD0
S2140827C080FCACF1080CB2EB0C0200FA0CF0AABFC5
S2140827D000EBC25052421843BCBFD0401843704763
S2140827E092F0000F81F4000106BF80F40000013269
S2140827F0013BB5E74FEA41037FEA226C18BF7FEA40
S214082800236C21D092EA030F04D092F0000F08BF81
S2140828100846704790EA010F1CBF0020704712F068
S2140828207F4F04D1400028BF40F00040704712F1A7
S21408283000723CBF00F50000704700F0004343F00C
S214082840FE4040F4000070477FEA226216BF084642
S2140828507FEA23630146420206BF5FEA412390EA05
S214082860010F40F4800070474FF0000304E000BFFB
S21408287010F0004348BF40425FEA000C08BF7047AC
S21408288043F0964301464FF000001CE050EA010270
S21408289008BF70474FF000030AE000BF50EA010285
S2140828A008BF704711F0004302D5404261EB410172
S2140828B05FEA010C02BF84460146002043F0B64397
S2140828C008BFA3F18053A3F50003BCFA8CF2083ABC
S2140828D0A3EBC25310DB01FA02FC634400FA02FCC5
S2140828E0C2F12002BCF1004F20FA02F243EB0200CC
S2140828F008BF20F00100704702F1200201FA02FC2E
S214082900C2F1200250EA4C0021FA02F243EB020020
S21408291008BF20EADC7070474FF0FF0C1CEAD05264
S2140829201EBF1CEAD15392EA0C0F93EA0C0F6FD025
S2140829301A4480EA010C400218BF5FEA41211ED003
S2140829404FF0006343EA501043EA5111A0FB0131EF
S2140829500CF00040B1F5000F3EBF490041EAD371C4
S2140829605B0040EA010062F17F02FD2A1DD8B3F140
S214082970004F40EBC25008BF20F00100704790F0AF
S214082980000F0CF0004C08BF49024CEA502040EA01
S21408299051207F3AC2BFD2F1FF0340EAC2507047C7
S2140829A040F400004FF00003013A5DDC12F1190F05
S2140829B0DCBF00F000407047C2F10002410021FA77
S2140829C002F1C2F1200200FA02FC5FEA310040F18F
S2140829D0000053EA4C0308BF20EADC70704792F008
S2140829E0000F00F0004C02BF400010F4000F013A40
S2140829F0F9D040EA0C0093F0000F01F0004C02BF3B
S214082A00490011F4000F013BF9D041EA0C018FE7A9
S214082A100CEAD15392EA0C0F18BF93EA0C0F0AD0AF
S214082A2030F0004C18BF31F0004CD8D180EA0100D5
S214082A3000F00040704790F0000F17BF90F0004F6E
S214082A40084691F0000F91F0004F14D092EA0C0F50
S214082A5001D142020FD193EA0C0F03D14B0218BFE3
S214082A60084608D180EA010000F0004040F0FE4029
S214082A7040F40000704740F0FE4040F440007047C5
S214082A804FF0FF0C1CEAD0521EBF1CEAD15392EA44
S214082A900C0F93EA0C0F69D0A2EB030280EA010C34
S214082AA049024FEA402037D04FF0805343EA1111CD
S214082AB043EA10130CF000408B4238BF5B0042F12B
S214082AC07D024FF4000C8B4224BF5B1A40EA0C00D0
S214082AD0B3EB510F24BFA3EB510340EA5C00B3EB02
S214082AE0910F24BFA3EB910340EA9C00B3EBD10FF0
S214082AF024BFA3EBD10340EADC001B0118BF5FEA42
S214082B001C1CE0D1FD2A3FF650AF8B4240EBC2506A
S214082B1008BF20F0010070470CF0004C4CEA50202B
S214082B207F32C2BFD2F1FF0340EAC250704740F47A
S214082B3000004FF00003013A37E792F0000F00F06C
S214082B40004C02BF400010F4000F013AF9D040EAEA
S214082B500C0093F0000F01F0004C02BF490011F47E
S214082B60000F013BF9D041EA0C0195E70CEAD15376
S214082B7092EA0C0F08D142027FF47DAF93EA0C0F5D
S214082B807FF470AF084676E793EA0C0F04D14B0241
S214082B903FF44CAF08466EE730F0004C18BF31F0F3
S214082BA0004CCAD130F000427FF45CAF31F00043ED
S214082BB07FF43CAF5FE700BF4FEA4002B2F1FE4F3A
S214082BC00FD34FF09E03B3EB12620DD94FEA0023E2
S214082BD043F0004310F0004F23FA02F018BF4042BB
S214082BE070474FF00000704712F1610F01D14202A2
S214082BF005D110F0004008BF6FF0004070474FF056
S214082C000000704742000ED2B2F1FE4F0BD34FF0D1
S214082C109E03B3EB126209D44FEA002343F0004345
S214082C2023FA02F070474FF00000704712F1610F68
S214082C3001D1420202D14FF0FF3070474FF000003A
S214082C40704700BF002101F053BA00BF00210A22D6
S214082C5001F0E4BAF8B50F4605460C460F4E07E0F5
S214082C600B685A1C0A6018780A2811D004F8010B59
S214082C70336859684B68013B002B4B60F0DA2846EE
S214082C8000F030F90A2803D0431CEFD1A74203D03E
S214082C90002323703846F8BD0020F8BD300507200D
S214082CA0024B01461868FFF7D5BF00BF300507205E
S214082CB070B50F4E0F4D761BB61018BF002405D002
S214082CC0013455F8043B9847A642F9D10A4E0B4DF5
S214082CD006F096F8761BB61018BF002406D0013406
S214082CE055F8043B9847A642F9D170BD70BD00BFA1
S214082CF00C8E08000C8E0800148E08000C8E080037
S214082D000FB410B5074B82B004AC54F8042B1868FF
S214082D1023468168019401F009FB02B0BDE8104023
S214082D2004B0704730050720931E222B10D80A2AB5
S214082D3010B506D000230C46194401F07BFA20464D
S214082D4010BD0028F6DA2D230B7040420123F2E767
S214082D5000200870704700BFFFF7E6BF844641EAC8
S214082D60000313F0030349D1403A23D30B680360EA
S214082D704B6843608B688360CB68C3600B690361EC
S214082D804B6943618B698361CB69C3610B6A0362D4
S214082D904B6A43628B6A8362CB6AC3620B6B0363BC
S214082DA04B6B43638B6B8363CB6BC36340304031A1
S214082DB0403ADBD230320BD30B6803604B68436073
S214082DC08B688360CB68C36010301031103AF3D23A
S214082DD00C3205D351F8043B40F8043B043AF9D2C8
S214082DE0043208D0D2071CBF11F8013B00F8013B9B
S214082DF001D30B8803806046704700BF082A13D3A8
S214082E008B07B1D010F00303AED0C3F10403D21A77
S214082E10DB071CBF11F8013B00F8013BA4D331F8CF
S214082E20023B20F8023B9FE7043AD9D3013A11F84F
S214082E30013B00F8013BF9D20B7803704B784370DE
S214082E408B7883706046704770B4840746D0541EEB
S214082E50002A41D0CDB2034602E0621EE4B314460F
S214082E6003F8015B9A07F8D1032C2ED9CDB245EAB0
S214082E7005250F2C45EA054519D9264603F1100203
S214082E80103E0F2E42F8105C42F80C5C42F8085CC4
S214082E9042F8045C02F11002F2D8A4F1100222F003
S214082EA00F0204F00F041032032C13440DD91E46EB
S214082EB02246043A032A46F8045BFAD8221F22F070
S214082EC003020432134404F003042CB1C9B21C44B0
S214082ED003F8011BA342FBD170BC70471446034697
S214082EE0C2E700BF38B50C46054608B1836B63B128
S214082EF02846214604F04EFB50B994E80C00013BE6
S214082F00511C84E80A00107838BD02F011FAEFE781
S214082F104FF0FF3038BD00BF00290CBF0222002248
S214082F204FF4806300F000B82DE9F0413A4D0446AE
S214082F302E6890460D461F4616B1B36B002B3CD044
S214082F40B8F1020F2FD8002F2DDB2146304602F0AD
S214082F5049F9A18900236360A3610B0627D421F0F1
S214082F60830189B2B8F1020FA1812AD0002D36D08C
S214082F70B8F1010F11D089B201F00800274B80B2D2
S214082F80F36325602561676178B111F0030F18BFF8
S214082F9000270020A760BDE8F08141F001017B42D0
S214082FA0A181A361E7E74FF0FF30BDE8F081216912
S214082FB0304602F095FAA189D1E7304602F0B8F912
S214082FC0BEE7002004F1430341F002010025012278
S214082FD0A181A560236023616261BDE8F081002FAE
S214082FE008BF4FF48067384603F048F9054628B10D
S214082FF0A18941F0800189B2A181B9E74FF48060C8
S21408300003F03CF9054618B9A1894FF0FF30D9E717
S2140830104FF48067ECE700BF3005072035520800FC
S21408302020F0030110F00300C0F1000051F8043B43
S21408303000F1040C4FEACC0C6FF000021CBF22FA19
S2140830400CF213434FF0010C4CEA0C2C4CEA0C4CD7
S214083050A3EB0C0222EA030212EACC1204BF51F8D0
S214083060043B0430F4D0C2F1000102EA0102B2FACD
S21408307082F2C2F11F0200EBD2007047002A3CD051
S21408308040EA010313F00303F0B425D1032A23D939
S21408309004680D68AC421FD1043A30D0A4F101355B
S2140830A025EA040414F0803F2CD1071D0D1D0DE001
S2140830B057F8043B0E68A3F10134B34224EA03042C
S2140830C00AD1043A1BD014F0803F1ED1032A2946A1
S2140830D0384605F10405EBD803780C78013AA34284
S2140830E008D162B173B110F8013F11F8014F013AE7
S2140830F0A342F6D0181BF0BC70471046704710461F
S214083100F0BC70471846F0BC70470020F3E700BFD5
S21408311040EA01039B0770B42BD1032A29D90C4631
S2140831200346214654F8046BA6F1013525EA060540
S21408313015F0803F05D1043A032A43F8046B21466C
S214083140EFD8A2B10C78013A1C70013101333CB1BA
S2140831506AB111F8014B013A03F8014B002CF7D17C
S2140831602AB11A44002103F8011B9342FBD170BC14
S21408317070470346E5E700BF2DE9F0410F46904645
S21408318003F0B2FE04460D46B8F1000F11D0C7F39F
S2140831900A53C3F16B03002B0BDD1B0503F17F55A8
S2140831A0002405F5401522462B4604F04BFEBDE8E4
S2140831B0F08120462946BDE8F08100BF00000000E7
S2140831C02DE9F04F0F469FB083460B46002000219E
S2140831D0CDE904010392002219971A921C4613F8A7
S2140831E0016B2D2E00F2F080DFE816F02E00EE00C0
S2140831F0EE00EE00EE00EE00EE00EE00EE00DD0063
S214083200DD00DD00DD00DD00EE00EE00EE00EE0085
S214083210EE00EE00EE00EE00EE00EE00EE00EE0031
S214083220EE00EE00EE00EE00EE00EE00DD00EE0032
S214083230EE00EE00EE00EE00EE00EE00EE00EE0011
S214083240EE004400EE00DA00039B4FF000084FF053
S214083250000953B100230693039B1F60069B23B106
S214083260414609F1004388469946404649461FB0FC
S214083270BDE8F08F00230693631C19936678002E2A
S214083280E2D0302E1C4600F0A480002308940A934F
S214083290A6F130034FF0000A092B5546234654463C
S2140832A019D8082CC8BF0AEB8A0A05EB850203F171
S2140832B0010306EB42021993C4BF06EB4A06A6F1C1
S2140832C0300A1E78D8BFA2F13005A6F13002092AC6
S2140832D004F10104E5D95846079302F05BFFD0F8DD
S2140832E00080584602F056FF0068FFF799FE079BD5
S2140832F0024641461846FFF7C1FE8046002800F001
S214083300E480002084468646A146652E73D0452E66
S21408331071D00023B9F1000F47D0B9F1100FC84695
S214083320CCEB03032846A8BF4FF01008079304F019
S21408333013FD002C08BF4C46B8F1090FCDE904016F
S21408334013DD764B03EBC80353E9122304F07AFD2A
S214083350064650460F4604F0FFFC02460B4630462B
S214083360394604F0BDFBCDE90401B9F10F0F00F3AF
S214083370D780079B002B00F0A580079B40F3678546
S214083380162B00F3D284DDE904230798634901EB82
S214083390C001D1E9000104F055FD804689460DE0DC
S2140833A00123069368E7199318E718B90A9B002BB8
S2140833B000F0A1824FF000084FF00009039B002B95
S2140833C03FF44CAF199F47E70023302E06937FF44F
S2140833D05CAF6378582B00F0A483782B00F0A183A9
S2140833E0013419942678302EFAD0002EE2D0012324
S2140833F008940A934CE7B9F1000F4ED0199F7B1C2E
S21408340019937E782B2E00F06D822D2E00F06482A4
S2140834104FF00008A6F13003092B324600F202826C
S214083420302E06D1199B013319931E78302EFAD008
S2140834303246313A082A3FF66CAF199B19460A46B7
S214083440013219920793A6F130034E78A6F130019F
S21408345009290BD80132199203EB830306EB4303C1
S2140834601678303BA6F130010929F3D90799521A84
S214083470082A00F3518444F61F629342A8BF1346F5
S214083480C8F1000253404344B9F1000F7FF445AF3A
S2140834908BE74FF0000C4FF0010E002840F0288212
S2140834A00A9B002B3FF4D0AE8146A7E76FF0004397
S2140834B005934FF0FF3304932B0742BF059B43F059
S2140834C000430593DDE9048978E7584602F062FE72
S2140834D00068FFF7A5FD199B1A1819921E5C002CA8
S2140834E040F0E881302E204605D101321992167830
S2140834F00130302EF9D0A6F13103082B00F2A08255
S214083500199B303E089300F1010C4FF0010905EBBA
S214083510850506EB45050020DAE100BF008D0800AA
S214083520079BC8EB09089844B8F1000F40F39A8344
S21408353018F00F000AD0DDE90423C14901EBC001E9
S214083540D1E9000104F07EFCCDE9040138F00F064D
S21408355040F0288200230A930095089922464B4695
S214083560584603F03FFA1090002800F03B83079A6D
S2140835700021002AC2F10003A8BF0B460F460C9391
S21408358022EAE27307910B93109C5846616803F091
S214083590B5F98246002800F0A582DDE90423214615
S2140835A09046994622690C31023292000C30CDE9D9
S2140835B00889FFF7D3FB1BA81CA98DE80300424621
S2140835C04B46584603F01AFD1A90002800F08B82E6
S2140835D05846012103F0A0FA0746002800F0828228
S2140835E01B9A002AC0F212810C9B0B9903EB020867
S2140835F00A981C9B121A1A446FF47F708242C3F111
S214083600360380F2EC80801A1F28A3EB000300F331
S2140836100281012500228540119208EB0309C14565
S2140836204A46A8BF4246CE180A9B1E44B2421346D4
S214083630A8BF3346002B04DDC3EB0909F61AC3EB13
S21408364008080C9BB3B1394658461A4603F00EFBD9
S2140836500746002800F04682584639461A9A03F06C
S21408366065FA0446002800F03D8258461A9903F089
S2140836706DF91A94B9F1000F08DD4A4658461A99AA
S21408368003F044FB1A90002800F02D820B9B43B1F0
S214083690514658460B9A03F0E9FA8246002800F08D
S2140836A02182002E08DD51463246584603F02EFB8E
S2140836B08246002800F01682B8F1000F08DD394669
S2140836C04246584603F022FB0746002800F00A82C6
S2140836D058461A99524603F095FB0790002800F0C2
S2140836E00182079A0026D3683946D6600D9303F000
S2140836F065FBB042C0F2208400F0DD8307983946A7
S21408370003F0D0FC00224FF0804304460D4604F038
S21408371015FE002867D00D9B002B00F0A280B1464E
S214083720484DDDF814C0DFF81C810024464E474B90
S2140837300CEA06069E4200F027820A9B23B3B6F1DF
S214083740D46F21D83CA3D3E900234846414604F069
S214083750F5FDB0B14846414604F036FE81460028DD
S21408376000F0268304F0F8FA814688460D9B002B65
S21408377040F0198308F10043CDF850901593DDE921
S214083780144505F1D6639D1BDDE9080103F0ACFB83
S21408379002460B462046294604F054FB02460B46D2
S2140837A0DDE9080104F09CF90C46CDE904010A9B02
S2140837B023B9254B23409E4200F01F8258461A998B
S2140837C003F0C4F85846514603F0C0F85846394640
S2140837D003F0BCF85846079903F0B8F8D4E6002278
S2140837E01192012519E71A4B20462946002204F0B3
S2140837F029FB0D9B8146884673BB01F100430E905A
S2140838000F93DDE90E45DDF814C08FE70B9BDDF856
S2140838103080991AECE60F480125801A05FA00F25E
S2140838201192FAE619970023B9F1000F7FF475ADE7
S214083830BBE500BFAFF300800000C0FFFFFFDF411D
S214083840008D08000000F03F0000F07F0000E07FD9
S2140838500000E03FE3FBFFFF02460B46CDE90E23E0
S214083860CFE7049BDDE90401002B40F0DE80C1F3BE
S21408387013038C46002B40F0DC8011912046294625
S2140838800022B54B04F050FDDDF844C0002840F097
S2140838909883B24B20462946002204F0D3FA814684
S2140838A0884601F10043DDF844C016901793DDE919
S2140838B016453BE74046A146C446A6F13002092A0B
S2140838C013D8431C1646002A40F04D821846199B0A
S2140838D05A1C19925E78F0E74FF00108BB1C199342
S2140838E0BE7897E54FF00008F8E74FF0010E0CE5B4
S2140838F04FF0000982E5BEF1000F7FF4A5AC493E03
S214083900252E3FF6A1AC01A353F826F08B3A080003
S214083910493208004932080049320800493208008E
S214083920533A08004932080049320800493208006C
S214083930493208004932080049320800493208006E
S214083940493208004932080049320800493208005E
S214083950493208004932080049320800493208004E
S214083960493208004932080049320800493208003E
S214083970493208004932080049320800493208002E
S2140839804932080049320800493208008B3A0800D4
S214083990493208004932080049320800493208000E
S2140839A0533A0800B6F59A7F00F31C813611012EAB
S2140839B0DFF8D08140F32383DDE9040147464FF062
S2140839C0000A16F0010F0AF1010A4FEA660603D04C
S2140839D0D7E9002304F036FA012E07F10807F0D1DC
S2140839E0CDE90401059B08EBCA08A3F154730593B7
S2140839F0DDE90423D8E9000104F024FA21F00043A5
S214083A001B0D574A1B059342CDE9040100F2EA80D4
S214083A10A2F58012934240F2CF82524B05930023C0
S214083A200A934FF0FF33049396E5012800F0C3810C
S214083A308C4600244C4D4FF00009DFF81C8175E6D3
S214083A40652E3FF426AD4FF00009CC464FF0010E28
S214083A505DE41999454809E011F8013FA3F14104CE
S214083A60192C98BF203393427FF4EEAB10F8012B45
S214083A70002AF1D14B1C19934B78282B00F0FD82B5
S214083A803B4B0593002304931CE5199A394809E033
S214083A9012F8013FA3F14104192C98BF20338B423A
S214083AA07FF4D2AB10F8011B0029F1D11992154604
S214083AB0314809E012F8013FA3F14104192C98BFD8
S214083AC020338B4240F0988210F8011B0029F1D170
S214083AD001321992294B059300230493F2E401312D
S214083AE040F0B8821A98254B0022059322230492A8
S214083AF0CBF80030DDE904890146584602F026FF77
S214083B005846514602F022FF5846394602F01EFF34
S214083B105846109902F01AFF5846079902F016FF01
S214083B204CE4069A1AAB01920093584619A9144A0F
S214083B301BAB01F0D9FF10F0070605463FF43AAC78
S214083B40062E40F047810134002319944FF00008F0
S214083B504FF00009069331E40000F03F0000E03F14
S214083B600000A07CFFFFEF7F0000F0BF608A08001F
S214083B700000F8FF548A0800588A08000000F07F02
S214083B80648A0800D88D0800ACF154730593DDE903
S214083B9004231046194603F0A7F902460B462046AA
S214083BA0294604F04FF902460B46DDE9040103F006
S214083BB097FF21F000431B0DB34A1B059342CDE93E
S214083BC00401DDE90801CDE9120140F2A980AF4BF6
S214083BD0139A9A4200F0EB81AC4B05934FF0FF33F3
S214083BE00493EBE5AA4B0022059304922223DDE911
S214083BF00489CBF80030FFF7E1BB4146484604F09D
S214083C00BBFB04F0B9F80B4602464146484603F0AB
S214083C1065FF0D9B8046894683B9049B73B9C4F338
S214083C2013045CB992A3D3E9002304F07DFB0028B3
S214083C303FF4C4ADDDE904891A985DE78EA3D3E99D
S214083C4000234046494604F06FFB0028F2D18CA3B7
S214083C50D3E900234046494604F084FB00283FF495
S214083C60ADADE7E73FF476ACC8F1000717F00F02F2
S214083C700AD0DDE90401874B03EBC203D3E900232E
S214083C8004F00AFACDE904013F113FF463AC1F2F94
S214083C9039DC17F0100300F0E7816A23002FD8BF3D
S214083CA00A9314DDDDE904017B4E0A9317F0010F31
S214083CB04FEA670703D0D6E9002304F0C3F8002FBD
S214083CC006F10806F2DC0A9BCDE9040193B1DDE9AA
S214083CD00401C1F30A53C3F16B03002B0ADD1F2B43
S214083CE040F3E8810022342B049240F3EB814FF036
S214083CF05C730593DDE904010022002304F00AFB47
S214083D0000283FF429AC2223CBF800304FF00008F7
S214083D104FF00009FFF752BB44F61F63FFF7B0BB2E
S214083D20059B03F15474059441E5079AC9F12503E8
S214083D309A423FF7F5ABDDE90423564CC9F10F0963
S214083D4004EBC901D1E9000104F07CF8079BC9EB34
S214083D50030904EBC904D4E9002304F073F8804689
S214083D608946FFF72BBB012B9C4414D0484402E03D
S214083D705D00814510D009F1010909F1FF33082BD0
S214083D8005EB8503F4DDB9F1100FDCBF0AEB8A0AF0
S214083D904FEA4A0AEDE74846082800F101097FDCA1
S214083DA0199BFFF7B4BB4A464346CDE91423E6E41D
S214083DB0DFF8E880DAE4DDE904239C46002B7FF48C
S214083DC038AE2223CBF800301A984FF000084FF090
S214083DD0000991E61A9A3AB11CA8352103F08EF923
S214083DE058461A9902F0B2FD1B9B062E3FF664ABA6
S214083DF001A252F826F000BF453E08002D3E0800F6
S214083E00213E0800153E0800AD3408002D3E080087
S214083E10453E08001E4B059300230493FFF74CBB52
S214083E201C9B04931D9B0593FFF746BB1D9A1C9984
S214083E3003F2334322F4801242EA035304910593B3
S214083E40FFF73ABB002305930493FFF735BB1633F9
S214083E50FFF666ABDDE90401079A0E4BA3EBC20337
S214083E60D3E9002304F018F980468946FFF7A6BA76
S214083E709535A094FFFFCF3F9535A094FFFFDF3F11
S214083E8035E5AF350000E03FFFFF9F7CFFFFEF7F83
S214083E900000F07F008D0800188A08000000F03F38
S214083EA0B9F1100FD7BF0AEB8A0A199B199B02EBC8
S214083EB04A0A00200CE50D9EAE46DDE90889002E6C
S214083EC000F08880DDE90445824BC5F3130199426A
S214083ED02A4600F0A980119B002B00F08880059ADE
S214083EE013420DD0DDE904010A9A002E00F08A80FC
S214083EF0FFF742F942464B4603F0F2FD80468946F4
S214083F000A9BBBB1744B4046139300231293DDE91A
S214083F101223494603F096FF02460B46804689461A
S214083F20CDE9042331B9049B23B922231A98CBF888
S214083F300030E1E51A98DFE50D9EDDE90889002ED8
S214083F40DED1049B002BDBD1DDE90401C1F31303AA
S214083F500C46002BD4D1059B23F000431B0D1B05F4
S214083F60B3F1D66FCCD9079A536913B91369012BE5
S214083F70C6DD07990122584602F0C8FE3946079062
S214083F8002F01CFF0028BBDD0A9B002B40F0878050
S214083F90524B2340A3F580136FEA13536FEA03537B
S214083FA005934FF0FF330493DDE90489A8E7129BD5
S214083FB001337FF411AE95E501F154730593FFF7CD
S214083FC0C9BA474B0022CDE91623DDF83490DFF84E
S214083FD01C816CE4DDE90401C1F313030C46002BD5
S214083FE07FF479AF049B002B7FF475AFCCE7049A77
S214083FF01EEA020F84D075E76B1C19936AE54FF02A
S214084000000AEFE4FFF7B8F802460B464046494672
S21408401003F064FD002200238046894604F07AF9FE
S21408402000287FF4CEAE6BE70A9B049913B32B4B9C
S2140840302B40B3F1D46F1DD81B0DC3F16B034FF0A3
S214084040FF3000FA03F399427FF445AF254B9A42B6
S2140840503FF445AD214B134003F580130593002329
S2140840600493DDE904894BE7002FD8BF0A933FF78E
S21408407019AE3FE64FF0FF33E5E719A81A491CAA20
S21408408001F0BCFF05287FF4FBAC1D9B43F0FF4303
S21408409043F4E00305931C9B0493FFF713BA0F4BF6
S2140840A02340B3F1D66F3FF775AFB3F15C7F3FF7A8
S2140840B029AF86E64FF0FF3202FA03F3049A1A4055
S2140840C0049217E6203B4FF0FF3202FA03F30B4048
S2140840D005930FE6FFFF0F00000050390000F07F41
S2140840E00000E0BFFFFFEF7F408A08000000E03FC7
S2140840F0024B0A4601461868FFF762B830050720E3
S2140841002DE9F04F444C83460E46D4F800E000E014
S2140841102646344614F8015B0EEB0500407800F09E
S214084120080000F0FF080028F2D12D2D4BD02B2DCB
S21408413004BF7578B41C1BB1102B60D09A4603E0F8
S214084140302D54D00A239A46B8F1000F14BF4FF00A
S21408415000406FF00040B0FBFAF90027BC460AFBA7
S21408416019000CE0303DAB4219DD7E1C05D0CC456D
S21408417024D821D00AFB0C5C012714F8015B0EEB4F
S2140841800506767816F0040FECD116F0030606D06E
S214084190012E0CBF37265726AD1BAB42E5DC7B1C31
S2140841A016D0C8F100008CEA000040444AB107B1B6
S2140841B0611E1160BDE8F08F8542DBDD4FF0FF37EA
S2140841C0DBE7BDE8F08FB41C75784FF00108B2E75E
S2140841D0B8F1000F4FF0220314BF4FF000406FF005
S2140841E00040CBF80030002AE2D1BDE8F08F2378F3
S2140841F003F0DF03582B09D008239A46A4E7302D8E
S2140842009CD1207800F0DF00582897D14FF0100A8C
S21408421065785346023497E73405072030B40D46D0
S214084220034C134601462A46206830BCFFF768BF91
S21408423030050720F0B58BB06F461546DFF870E0FE
S21408424004460E46BEE80F000FC7BEE80F000FC7AD
S2140842509EE80300AB1E47F8040B222B397022D8C1
S214084260711E0846002300E01346B4FBF5F205FB72
S21408427012440AAF3C4414F8287C144600F8017F20
S2140842805A1C002CF0D1B454F2184BB1013411F872
S214084290015F1778181B84420F7002F80159F5DB86
S2140842A030460BB0F0BD002030700BB0F0BD00BF3C
S2140842B0788A08004B6E2DE9F0479C040F46924614
S2140842C02BD59368126833B3804602F1080919E9BA
S2140842D06000B60817D0043D002401E0A64210D0BE
S2140842E0404655F8041F3A4601F09AF8431C04F174
S2140842F00104F3D10023CAF80830CAF80430BDE830
S214084300F087DAF80830A3EB8603CAF8083009F114
S2140843100809002BDBD10020ECE701F0B9F90023EF
S214084320CAF80830CAF80430BDE8F0872DE9F04F1F
S214084330ABB01C46009193460493019018B1836B6A
S214084340002B00F0E380009B99898AB2900408D479
S21408435018465B6E41F4005223F40053828143668C
S21408436092B2110740F1B280009B1B69002B00F047
S214084370AD8002F01A020A2A00F0B4800DF1680A2D
S21408438054460023099302930F930E93CDF834A056
S2140843909BF80030002B00F0A384252B00F0A084A7
S2140843A05A4601E0252B03D012F8013F002BF9D11D
S2140843B0CBEB0206154696B10E9B0F9A0133324494
S2140843C0072BC4F800B066600F920E9379DD002ABA
S2140843D040F0AD845446029B0E92334402932B78E9
S2140843E0002B00F05F834FF0000300214FF0FF3CE6
S2140843F08DF82F30681C6B7888460D46664600F1A7
S214084400010BA3F12002582A00F2AA82DFE812F074
S2140844109A02A802A802A202A802A802A802A80253
S214084420A802A80254026002A8020D016C02A802A3
S21408443029012F012F012F012F012F012F012F01F5
S2140844402F012F01A802A802A802A802A802A80203
S214084450A802A802A802A8023D01A802A802A8026B
S214084460A802A802A802A802A802A802A802740124
S214084470A802A802A802A802A8028B01A802A802FD
S214084480A301A802A802A802A802A802A802A802D5
S214084490A802A802A802C701DA01A802A802A80270
S2140844A02301DA01A802A8024B02A8028802130117
S2140844B0F4010702A8020D02A8028100A802A802B9
S2140844C032020834029B3344029388E70198009925
S2140844D000F072FDA8B9009B9A8902F01A020A2A0F
S2140844E07FF44CAF009BB3F90E30002BFFF646AFB7
S2140844F0019800995A46234600F020FD2BB0BDE8E7
S214084500F08F4FF0FF302BB0BDE8F08F00F010FFB3
S21408451019E718F0200F0395B44600F00C81049BA9
S214084520073323F0070303F10802D3E90067049270
S21408453001234FF00002E1468DF82F200025BCF13C
S214084540000FA8BF28F0800856EA070240F0C4808B
S214084550BCF1000F00F08083012B00F0C580022B11
S21408456000F086835146F20842EA4772F80806F0D9
S214084570070307461646303356EA070201F8013D98
S214084580F1D118F0010F079140F0FA83C1EB0A0940
S214084590E1454E46B8BF664605B1013618F0020337
S2140845A0059318BF023618F08403069340F0F98185
S2140845B0039B9D1B002D40F3F481102D40F38A8445
S2140845C02046DDF838E064460F9AC44F102371463B
S2140845D0844607E001F1020E01460CF1080C103D76
S2140845E0102D13DD481C103207280F92CCF80070E7
S2140845F0CCF804300E90EDDD002A40F0C281103D64
S214084600102D11464FF0010ED446EBDC634671467A
S214084610A4461C462A4407290F92276065600E9117
S21408462000F346830834481CBEE1584648F00408A0
S2140846309BF80030E3E618F020030395B44662D0F2
S214084640049B073323F0070303F10802D3E9006746
S214084650049200236DE748F040089BF8003058465F
S214084660CDE648F080089BF800305846C7E6A3F128
S214084670300200251BF8013B05EB850502EB4505D6
S214084680A3F13002092AF5D9BBE648F0100818F05D
S214084690200F0395B4468DF82F1000F09B800499E0
S2140846A0073121F00701D1E9002316461F460831D5
S2140846B00491002A73F10003C0F2A483BCF1000F32
S2140846C0A8BF28F0800856EA07029DF82F50E14652
S2140846D04FF001033FF43CAF012B7FF440AF002FAF
S2140846E008BF0A2E80F032832AAB303603F8416DB5
S2140846F0C3EB0A0907934BE748F0100818F02003A5
S2140847000395B4469CD118F0100240F0F78218F0D2
S214084710400300F0F382049913460A4604320E88D2
S2140847200027049205E748F0100818F0200F0395B4
S214084730B4467FF4F4AE049A18F0100F134640F00F
S214084740E48218F0400F00F0E08216880432002752
S21408475001230492EDE6624A18F0200F0395B4464A
S2140847608DF82F10099200F08F80049A073222F0F5
S214084770070202F108010491D2E9006718F0010F58
S21408478000F08F8256EA070200F08B8230228DF8FE
S214084790313048F002088DF830200223C9E6049A22
S2140847A0012613684FF000018DF840301346B146D5
S2140847B00433049310AB03958DF82F1007934FF02E
S2140847C0000CEBE618F0200F0395B4468DF82F1072
S2140847D07FF465AF049A18F0100F134640F0A082D5
S2140847E018F0400F00F09C82B2F900600433F71707
S2140847F0049332463B465CE7049978238DF83130BB
S214084800384BB44630220E6804310993039548F0B5
S2140848100208049100278DF83020022389E648F024
S21408482020089BF800305846E9E54FF00001049A46
S21408483003951368B44607938DF82F10151D002BA3
S21408484000F04E83002EC0F22983079E624630464B
S2140848500021CDF810C001F09FFFDDF810C0002839
S21408486000F04E830495C6EB00099DF82F504FF0D4
S214084870000C8DE61B4A18F0200F0395B4460992E3
S2140848808DF82F107FF471AF049918F0100F0A46B0
S21408489040F0418218F0400F00F03D8204320E8846
S2140848A0002704926AE79BF800306C2B00F0E98238
S2140848B048F010085846A2E5049A134615680433CB
S2140848C0002DC0F2E68204939BF80030584696E521
S2140848D09BF8003058462B2191E500BFE08A080077
S2140848E0B08A0800C48A08009BF800300BF1010063
S2140848F02A2B00F00F83A3F13002092A83464FF0D3
S21408490000063FF67EAD1BF8013B06EB860602EB7B
S2140849104606A3F13002092AF5D946EAE67670E596
S21408492018F0200F8DF82F1000F08382049A134693
S21408493004330493029B1168DF171A463B46C1E905
S214084940002325E558469BF8003000297FF457AD2C
S214084950202154E548F0010858469BF800304EE5FB
S21408496003958DF82F10002B00F09C808DF84030B2
S2140849704FF0000301268DF82F3010ABB146079391
S2140849801DE7019800990DAA0893FFF793FC0028E5
S21408499040F08F800E99D4460F9A01F1010E089BBD
S2140849A01DE60E990F9A481C9DF82F306BB1013200
S2140849B00DF12F03012107280F920E9023606160E6
S2140849C000F33481014608340130059B63B1023296
S2140849D00CA9022307280F920E9084E80A0000F319
S2140849E03481014608340130069B802B00F0D480C1
S2140849F0C9EB0C07002F2BDD102FAB4D1FDDA6468D
S214084A001023019C07E001F1020C01460EF1080E86
S214084A10103F102F11DD481C103207280F92CEF8D1
S214084A200050CEF804300E90EDDD6ABB103F102F14
S214084A304FF0010C1146D646EDDC744660463A4403
S214084A4007280F9284E8A0000E903BDC083401305B
S214084A5002EB0903079A07280F9384E804020E90CE
S214084A603DDD002B40F03F8118F0040F0E9340F018
S214084A703081029B039A9642ACBF9B199B180293FF
S214084A8000230E93544683E4204600990DAA059306
S214084A90FFF710FC68B90E99D6460F9A01F1010C7B
S214084AA0059BB5E70F9B23B1019800990DAAFFF760
S214084AB001FC009B9B895B063FF523AD02982BB053
S214084AC0BDE8F08F002A40F090814B46544607997F
S214084AD00122CDF86C90CDF83C901A910E9204F114
S214084AE0080218F0040F39D003998D1B002D35DD08
S214084AF0102D40F300820E986C4F1024DDF80480C9
S214084B00DDF8009006E000F1020E08460832103D77
S214084B10102D10DD411C103307290F9317605460C1
S214084B200E91F0DD002B2AD1103D102D4FF0010E0E
S214084B3018465246EEDC2B44BEF1070F0F9317605B
S214084B405560CDF838E009DD002B92D00198009921
S214084B500DAAFFF7AFFB0028ABD10F9B029A03996B
S214084B608E42ACBF921952180292002B88D0019838
S214084B7000990DAAFFF79EFB002881D099E74046CA
S214084B8049460DAAFFF796FB002892D10E98524682
S214084B900F9B00F1010EBAE7039B9F1B002F7FF7C0
S214084BA027AF102F40F3B38120463F4D64461023AD
S214084BB0844607E001F1020E01460CF1080C103F8E
S214084BC0102F11DD481C103207280F92CCF8005021
S214084BD0CCF804300E90EDDDC2B9103F102F4FF020
S214084BE0010E1146D446EDDC6346A4461C463A44FC
S214084BF0BEF1070F0F9284E8A000CDF838E000F366
S214084C00EE8008340EF101007146F1E6019800992D
S214084C100DAA0593FFF74EFB00287FF44AAF0E99BE
S214084C20D4460F9A01F1010E059BC8E7002A40F00A
S214084C30C580059B002B00F085800CAA02231A92DB
S214084C4008461B931A465446CBE6002A40F0A58031
S214084C50012011465446C7E603BB18F0010F1DD0C5
S214084C602AAB302203F8412DC3EB0A0907938FE4D9
S214084C70D1460998330943EA0773390906F00F0243
S214084C800F461E46835C09F8013D56EA0703F1D134
S214084C904B46CDF81C90C3EB0A0979E4CDF81CA066
S214084CA076E4022345E400BFA08A0800E08A0800EC
S214084CB0002A40F0D5809DF82F30002B00F0AC80FD
S214084CC001230DF12F0118461B931A461A915446D4
S214084CD078E6039A951B002D52463FF709AFC8E6BB
S214084CE05D46FFF77CBB019800990DAAFFF7E2FA2C
S214084CF000287FF4DEAE52460F9BF2E604990027A2
S214084D000A4604320E68049213E404321E6800272A
S214084D10012304920DE416680432049200272DE558
S214084D201E680433F717049332463B46C1E40198DD
S214084D3000990DAAFFF7BEFA00287FF4BAAE5446CB
S214084D40FFF7C0BB0846544611464DE6D146CDF897
S214084D5014C0304639460A22002303F055FB303289
S214084D603046394609F8012D00230A2203F04CFB89
S214084D7006460F4656EA0703EBD1DDF814C087E768
S214084D80302B079B87D0013B1A4607933023C2EB8C
S214084D900A0901F8013CFFF7FBBB019800990DAA28
S214084DA0CDF814C0FFF786FA00287FF482AE0E9975
S214084DB054460F9A481CDDF814C015E60198009969
S214084DC00DAACDF820C0FFF775FA00287FF471AE5B
S214084DD00E9954460F9A481CDDF820C0F5E5002ABF
S214084DE067D101201146544602E6019800990DAA9B
S214084DF0FFF760FA00287FF45CAE0E9854460F9AC8
S214084E00013025E62D25764267EB47078DF82F50AB
S214084E10E1460123FFF793BB059B11460120544644
S214084E20002B3FF4E5AD0CAA02238AE80C001A46CC
S214084E30D7E518F0100F0BD118F0400F08D0049AD9
S214084E40136804320492BDF808201A80FFF7A0BA47
S214084E50049A136804320492029A1A60FFF798BA02
S214084E60019800990DAACDF820C0FFF723FA00286C
S214084E707FF41FAE0E9954460F9A481CDDF820C0E2
S214084E8092E548F020080BF101009BF80130FFF787
S214084E90B6BA6D4204935846FFF7C8BB0798049500
S214084EA0FEF7BEF89DF82F5081464FF0000CFFF72E
S214084EB06FBB019800990DAACDF814C0FFF7FAF950
S214084EC000287FF4F6AD0E9954460F9A481CDDF874
S214084ED014C08DE50E990F9A0131154FFFF79ABB4E
S214084EE0062E144B28BF4FF0060CE14604952CEA14
S214084EF0EC76079363E40E990D4F01F1010E1AE65E
S214084F00E146049584469DF82F50FFF741BB864638
S214084F10094D6CE6049A9BF8013016680432002E98
S214084F200492BFF66CAA4FF0FF36FFF768BA00BFC8
S214084F30E08A0800D88A0800A08A08002DE9F0450B
S214084F4088464F6EADF26C4D1997D8F81C70B1F8BC
S214084F500CE0B1F80EA00797D8F824701AAC4FF4F6
S214084F6080652EF0020E0026694600940494029589
S214084F700595ADF80CE0ADF80EA00997069605461F
S214084F80FFF7D4F9041E07DB2846694600F02AF91D
S214084F90B04218BF4FF0FF34BDF80C305B0605D59D
S214084FA0B8F80C3043F04003A8F80C3020460DF251
S214084FB06C4DBDE8F08500BF38B52F4B0546186820
S214084FC00C4610B1836B002B36D0A28993B2180713
S214084FD00CD52069A8B113F001021ED0636900221F
S214084FE05B42A361A260F0B1002038BDD9063AD56D
S214084FF0580724D4206942F00803A3819BB20028EE
S214085000E9D103F42072B2F5007FE4D028462146A1
S21408501001F0C4F8A3892069DDE7990758BF6269DB
S214085020A2600028E0D1A3891A06DED543F0400323
S214085030A3814FF0FF3038BD00F07AF9C5E7216B41
S21408504049B104F14003994203D0284600F048FAD3
S214085050A28900232363206922F02402002392B247
S21408506084E80900C7E742F0400209232B604FF0A6
S214085070FF30A28138BD00BF30050720024B13B1B0
S214085080024800F005B870470000000045530800C5
S214085090014600200246034602F0F8BB8B892DE93C
S2140850A0F0419AB20D46110780463CD46A6843F42C
S2140850B00063002AAB8165DDAE6A002E4BD09BB23A
S2140850C003F48052002192B2D8F80040C8F80010C5
S2140850D0002A5BD02A6D5F0705D569682B6B521AC4
S2140850E00BB1EB6BD21A4046E9690023B047461C61
S2140850F056D0AB892A6923F400639BB200212A6044
S214085100DA04AB8169603BD4296BC8F8004011B358
S21408511005F14003994202D0404600F0E1F900202C
S2140851202863BDE8F0812E69AEB191072C680CBFE4
S2140851306B6900232E60A41BAB600AE03246234648
S2140851406F6A4046E969B8470028A4EB000406449D
S21408515004DD002CF2DC0020BDE8F081AB894FF0BE
S214085160FF3043F04003AB81BDE8F081AB892A6984
S21408517023F400639BB2AB81DB0469602A60C3D565
S2140851802865C1E7EA6B002A96DCE4E70123404677
S214085190E969B047431C024619D0AB89AE6A9AE75C
S2140851A0D8F800100029E1D01D2907D0162905D007
S2140851B0AB8943F04003AB81BDE8F081AB89296930
S2140851C023F400630022AB8185E806009CE7D8F844
S2140851D00030002BE1D01D2B01D0162BBED1C8F80D
S2140851E00040B8E710B5044682B008B1836B53B1E7
S2140851F0B1F90C0008B902B010BD204602B0BDE8EF
S2140852001040FFF74BBF019100F092F80199EFE7C5
S21408521020B1054B01461868FFF7E4BF034B044965
S214085220186800F0E9BB00BF30050720108A0800A0
S214085230E5510800014900F0DFBB00BFB57908005A
S2140852402DE9F04F074635487D68002407F53B7280
S21408525004230321F863C7F8E412C7F8E822C7F85E
S214085260E04283B02C606C60AC606C66EC812C61AC
S2140852706C61AC61AB81214605F15C000822FDF744
S214085280E3FDDFF89CB0BE68DFF898A0DFF89890DA
S214085290DFF8988001230922C5F820B0C5F824A0B5
S2140852A0C5F82890C5F82C80ED612146F381B281B7
S2140852B006F15C0034607460B460746634617461CE
S2140852C0B46108220193FDF7BFFDFD681220022293
S2140852D0F661C6F820B0C6F824A0C6F82890C6F826
S2140852E02C802146A881EA812C606C60AC606C66D4
S2140852F02C616C61AC6105F15C000822FDF7A4FD29
S214085300019BED61C5F820B0C5F824A0C5F8289023
S214085310C5F82C80BB6303B0BDE8F08F3552080093
S214085320C9760800ED760800257708004577080056
S214085330836B03B17047FFF783BF00BF704700BF9A
S214085340704700BF38B5084B084DED1AAC1018BFAB
S214085350ED1805D0013C55F8043D9847002CF9D1C6
S214085360BDE8384003F056BD208E0800248E08009D
S2140853702DE9F04182B007460E46144600F004FFB9
S214085380012840D0384601A9324604F15C0302F0F1
S21408539031FAB0F1FF3F80462ED000283BD09DF86A
S2140853A00410002509E02368197023680133236078
S2140853B00135A8452FD901AB595DA368013B002BE1
S2140853C0A360F0DAA269934206DB236819702368A3
S2140853D0197801330A29EAD13846224602F0B6F986
S2140853E0A0F1FF30B0FA80F040090028E0D04FF076
S2140853F0FF3002B0BDE8F081A38943F04003A381E3
S21408540002B0BDE8F081731EFE2BBBD8F1B2804611
S2140854108DF80410C5E7304602B0BDE8F08100BF3D
S214085420938913F4005F0BD110B4546E43F4005301
S21408543044F40054546693815DF8044BFFF798BF14
S214085440FFF796BFF8B50C46224F064601F052FA0B
S214085450BB685D6825F00305291B01F6EF7121F48A
S2140854607F6121F00F01A1F58054B4F5805F07DB5A
S2140854703046002102F016F9BB682B44984204D047
S214085480304601F039FA0020F8BD3046614202F095
S21408549009F901300DD0104BBA6819682D1B45F074
S2140854A001053046091B5560196001F025FA0120F0
S2140854B0F8BD3046002102F0F5F8BA68831A0F2BBB
S2140854C0DEDD064C0449246843F00103001B5360E4
S2140854D00860D5E79405072088AD0720A0090720AF
S2140854E000294ED02DE9F0410C46804601F002FA1C
S2140854F054F8047C6249A4F1080527F00102AB18A9
S2140855008E6858689E4220F003005AD0FE075860FE
S2140855100BD454F8087C01F1080EED1BAC683A442D
S214085520744567D0EF68E760BC601C186468E407D9
S2140855300CD4544F9C680244BC427CD0D86842F0D5
S2140855400103E06084606B60AA5003E042F0010348
S2140855506B60AA50B2F5007F14D2D20801EBC203E2
S21408556001244868921004FA02F29C681043AC6062
S214085570EB6048609D60E5604046BDE8F04101F09C
S214085580BBB97047530A042B47D8930903F138046C
S214085590600001EB800083683949834243D059682C
S2140855A021F00301914202D99B689842F7D1DA6844
S2140855B0EA60AB6040469560DD60BDE8F04101F00A
S2140855C09BB9FF07024407D454F8084C2D1BEB6818
S2140855D0A8682244C36098602B4B42F001001B6801
S2140855E068609A428D60C7D3284B40461968FFF713
S2140855F029FFC1E719184968C90709D4D9680244B8
S2140856009B6842F00100D9608B606860AA50B3E7D7
S21408561042F001036B60AA50AEE7142B14D803F1CE
S2140856205B046000B5E74A68A4100120A040024366
S2140856304A601A46BCE742F001034D610D61EC6012
S214085640AC606B60AA5097E7542B04D8130B03F191
S2140856506E0460009DE7B3F5AA7F04D8D30B03F168
S2140856607704600095E740F25450834204D8930CC0
S21408567003F17C0460008CE7FC207E2489E700BFE9
S214085680940507209C0507209C09072084AD072061
S2140856909368002B00F0B1802DE9F04FB1F80CE0CC
S2140856A083B01EF0080F0C468146164628D00B69B4
S2140856B033B30EF002081FFA88F0356880B34FF04F
S2140856C0000BD846DFF8E4A2B8F1000F00F08F8090
S2140856D0D0454346484628BF5346E1695A46676A56
S2140856E0B847002840F3A880B36883441B1AC0EB69
S2140856F00808B360002BE7D1002003B0BDE8F08FA0
S21408570048462146FFF758FC002840F04681B4F882
S2140857100CE035680EF002081FFA88F00028CED193
S2140857201EF0010B40F09180D846B8F1000F58D013
S2140857301EF4007FA76862D0B845BA46C0F0C2809B
S2140857401EF4906F00F0C08067692169236807EB34
S21408575047075B1A07EBD777581C7F1040448742E9
S2140857603A463CBF07463A461EF4806F009300F060
S214085770FB801146484600F089FD009B82460028BB
S21408578000F00E811A4621690093FDF7E7FAA28910
S214085790009B22F4906242F08002A2810AEB03008A
S2140857A0C4F810A0FB1A6761C24647462060A3608B
S2140857B05246594601F03AF8A0682268C01BA06015
S2140857C0404602EB0A032360B36883441B1AC0EB07
S2140857D00808B360002B8FD0B4F80CE0B8F1000FBF
S2140857E0A6D1D5F800B0D5F8048008359DE7D5F8D9
S2140857F000B0D5F80480083566E7002070472068B2
S2140858002369984203D86269904580F085804745A9
S21408581028BF474659463A4601F008F8A368226862
S214085820DB1B3A44A3602260002B49D14846214638
S214085830FFF7D8FC002843D0A38943F040034FF075
S214085840FF30A38103B0BDE8F08F804683468246CA
S2140858500090BAF1000F2BD0009B002B4FD0D045FC
S214085860434628BF5346206821691F468842D4F815
S21408587008E0626903D90EEB020C63455EDC9342CE
S21408588024DB1346676A4846E1695A46B847071E46
S214085890D2DDB8EB070829D0B368BB44DB1BC7EBDF
S2140858A00A0AB360002B3FF427AFBAF1000FD3D132
S2140858B00023D5F800B0D5F804A000930835C8E74B
S2140858C0384681E74746C246206871E71A46594671
